:020000040800F2
:10000000784E00205D1300085D0500085F050008BC
:1000100063050008670500086B0500080000000084
:100020000000000000000000000000006F05000854
:10003000710500080000000051620008E910000886
:100040007713000877130008771300087713000868
:100050007713000877130008771300087713000858
:100060007713000877130008771300087713000848
:100070007713000877130008771300087713000838
:10008000771300087713000877130008876C0008BF
:10009000556C0008771300087713000877130008E1
:1000A0007713000877130008771300087713000808
:1000B000771300087F64000877130008771300089F
:1000C00077130008771300087713000877130008E8
:1000D000771300088163000877130008C91200082D
:1000E00077130008771300087713000877130008C8
:1000F00077130008771300087713000877130008B8
:1001000077130008771300087713000877130008A7
:100110007713000877130008771300087713000897
:100120007713000877130008771300087713000887
:100130007713000877130008771300087713000877
:100140007713000877130008771300087713000867
:100150007713000877130008771300087713000857
:100160007713000877130008771300087713000847
:100170007713000877130008771300087713000837
:10018000771300087713000800F002F800F041F838
:100190000AA090E8000C82448344AAF10107DA45E2
:1001A00001D100F036F8AFF2090EBAE80F0013F0F3
:1001B000010F18BFFB1A43F0010318477CC500006C
:1001C0009CC50000103A24BF78C878C1FAD85207FD
:1001D00024BF30C830C144BF04680C6070470000C1
:1001E0000023002400250026103A28BF78C1FBD840
:1001F000520728BF30C148BF0B60704764290BF01D
:10020000FB87002070471FB50CF0ECF81FBD10B540
:1002100010BD0CF0B7F81146FFF7F5FF00F01EF91E
:100220000CF0D5F803B4FFF7F2FF03BC00F0ECFFCD
:100230000CE000F094FB092000F019FD00B2A84981
:100240000968A1F85A00642000F0B3FFF1E706F056
:10025000DCFF4FF4C872A349002000F0CFFDA14895
:10026000B0F88C0145F2AA5188420DD008469D494C
:10027000A1F88C010120088007F00EF94FF4C87234
:100280009849002000F0CBFD07F0FFF99548008861
:1002900095490880032095490968888706E00BF096
:1002A00037FF00F06FFA022000F083FFF7E703E06A
:1002B0004FF47A7000F07DFFFAE703E04FF47A70B4
:1002C00000F077FFFAE706F020F989A00BF054FF61
:1002D00001E006F0EEFAFCE7012089490860834856
:1002E0000068806A874908604FF4FA707C490968A1
:1002F000A1F85E00F0207A490968A1F8600050205A
:1003000077490968A1F862004FF4E47074490968FC
:10031000A1F8640000207C49088064E07A480088E5
:1003200070B97048B0F8560240F6020188421BD1FD
:1003300001207549088000206A49A1F8560213E09F
:100340006848B0F8560240F6030188420CD10E20EE
:100350006349096848820A2000F02BFF00206A499F
:1003600008806049A1F856025E48B0F8560240F68F
:100370000101884209D14FF4C8725A49002000F0A7
:100380004EFD00205749A1F8560258480068806A7F
:100390005C49096888420AD054480068806A594913
:1003A000086002224F49F031F02000F038FD544837
:1003B000001F006808B9012000E000205049091F13
:1003C000086047480068408E30B1081D0068C0438F
:1003D0004E49C1F88C0202E00120494908604FF4FF
:1003E0007A7000F0E6FE99E770B50446002500BF7C
:1003F00003F0C8FE05F004FF05463223444A0021FD
:10040000AFF22B1005F0FAF90F23424A0021AFF2A8
:10041000491005F0F3F908233F4A0021AFF26510B7
:1004200005F0ECF905233D4A0021AFF27D1005F0FF
:10043000E5F904233A4A0021AFF2ED1005F0DEF9A8
:100440001423384A0021AFF2172005F0D7F90A200B
:1004500005F054FC284605F0D7FE70BD10B5A82065
:1004600000F057FE4FF4E13000F0DCFE00F0E6F95A
:1004700000F02EFC00F0BEFB00F01AFB03F045FD7F
:100480000A23294A0021AFF29F0005F0B7F903F0D3
:1004900061FE002010BD21E0002000F047FB044673
:1004A000012C06D10F48B0F8FE1120A00BF064FE1D
:1004B00010E0032C03D123A00BF05EFE0AE0042C15
:1004C00003D122A00BF058FE04E0022C02D121A09F
:1004D0000BF052FE4FF47A7000F06BFEDCE7000088
:1004E00030C40008BC1A00201800002034C40008E2
:1004F000756172743120696E6974206F6B200A0017
:100500008C024242000000201A00002000004242FB
:10051000B8020020B8060020B80A0020B80E00205B
:10052000B8120020B8160020B80100206B657930A1
:100530002C64476C625265675B3235355D3A2564E1
:10054000200A00006B657932200A00006B6579751E
:1005500070200A006B657931200A0000704700BFE7
:10056000FEE700BFFEE700BFFEE700BFFEE7704703
:10057000704700000CB5002001900090764800689C
:1005800040F480307449086000BF7348006800F48C
:10059000003000900198401C0190009818B9019813
:1005A000B0F5A04FF1D16C48006800F4003010B1F4
:1005B0000120009001E0002000900098012846D121
:1005C00065484030006840F0805063494031086021
:1005D0006248006840F44040604908605E48083066
:1005E00000685D49083108600846006840F4004032
:1005F00008600846006840F4A05008605848091F89
:100600000860081F006840F08070091F086000BF84
:100610005148006800F000700028F9D040F20570E1
:10062000504908604C480830006820F003004A49EF
:10063000083108600846006840F00200086000BF0A
:1006400045480830006800F00C000828F8D10CBDBF
:1006500010B54548006840F47000434908603E48C2
:10066000006840F001003C49086000203A49083128
:100670000860394800683D490840374908603C48EF
:10068000091D0860081F006820F48020091F086009
:10069000002031490C310860FFF76CFF4FF000601B
:1006A00031498039086010BD70B500200022022356
:1006B00000240221284D08352D6805F00C0020B1DA
:1006C000042806D0082834D107E02A4D2A4E356088
:1006D00033E02A4D284E35602FE01F4D2D1D2D682B
:1006E000C5F380541C4D2D1D2D6805F03F0154B1FC
:1006F000224DB5FBF1F5184E361D3668C6F3881647
:1007000005FB06F209E01B4DB5FBF1F5124E361D57
:100710003668C6F3881605FB06F20F4D2D1D2D68B1
:10072000C5F301456D1C6B00B2FBF3F5124E35604D
:1007300003E0104D104E356000BF00BF064D083578
:100740002D68C5F303150E4E705D0B4D2D68C54029
:10075000094E356070BD0000003802400070004056
:1007600008544007003C024088ED00E0FFFFF6FE21
:10077000103000240024F4000400002000127A004D
:100780000800002010B5002034E01C4A411C52F83B
:100790002110CA8800F58271194B23F81120174ADD
:1007A000411C52F8211009694FF6FF7202EA2142FA
:1007B000410001F20B1123F81120104B421C53F899
:1007C00022201169CA1701EB9252C2F38F23420013
:1007D00002F586720A4C24F81230084A411C52F87D
:1007E0002110C98C8AB200F21911234623F8112076
:1007F000411CC8B20728C8DB10BD000010C40008A7
:10080000BC1A00201CB50121102001F05BF90C205E
:10081000009001208DF8040000208DF806000320D0
:100820008DF8050001208DF807006946954800F015
:10083000ABFE0C21934800F023FF1CBD1CB5012129
:100840005D2001F03FF94FF48070009001208DF899
:10085000040000208DF8060003208DF8050001201B
:100860008DF807006946884800F08EFE4FF48071CD
:10087000854800F007FFC020009001208DF804009B
:1008800000208DF8060003208DF8050001208DF86A
:10089000070069467D4800F077FEC0217B4800F0E4
:1008A000F1FE4FF49470009001208DF804000020B8
:1008B0008DF8060003208DF8050001208DF8070053
:1008C0006946734800F060FE4FF48071704800F094
:1008D000D9FE28216E4800F0D3FE0C2000900120A4
:1008E0008DF8040000208DF8060003208DF8050027
:1008F00001208DF807006946624800F045FE4FF47C
:100900000040009000208DF8040003208DF80500C1
:1009100001208DF8070069465B4800F035FE89200C
:10092000009000208DF8040003208DF805000120C0
:100930008DF807006946574800F026FE4FF4A65090
:10094000009000208DF8040003208DF805000120A0
:100950008DF8070069464E4800F016FE1CBD0020C9
:100960004D49096809B140F001004B49091F096868
:1009700009B140F002004949096809B140F004009A
:100980004749096809B140F0080045490C31096838
:1009900009B140F0100042491C31096809B140F02A
:1009A00020003D490C31096809B140F040003A4946
:1009B0001431096809B140F08000C143C9B2394A15
:1009C0001268A2F856103749096891F8581001F0DA
:1009D000010119B10121344A116002E00021324ABB
:1009E00011603049096891F8581001F0020121B1F5
:1009F0000121294A8432116003E00021264A843211
:100A000011602849096891F8581001F0040121B1DA
:100A10000121224A6432116003E000211F4A64323E
:100A200011602049096891F8581001F0080121B1BE
:100A300001211D4A121D116003E000211A4A121DF6
:100A400011601A49096891F83C1001F0010121B1C7
:100A50000121114A7032116003E000210E4A703208
:100A600011601249096891F83C1001F0020121B1AE
:100A70000121094A7832116003E00021064A7832E8
:100A80001160704700100240000002400008024060
:100A900000180240000C02401C0243423C0240424B
:100AA0000082414230C400089802414234C4000828
:100AB0001CB50121202001F005F84FF48070009052
:100AC00001208DF8040000208DF8060003208DF829
:100AD000050002208DF807006946044800F054FD27
:100AE0004FF48071014800F0CDFD1CBD00140240A0
:100AF0001CB50121112000F0E5FF1C200090002012
:100B00008DF8040003208DF8050001208DF8070002
:100B10006946354800F038FD0120009002208DF82C
:100B200007006946314800F02FFD1CBD10B5044692
:100B300014B101202E4908702D480078002837D0C4
:100B40001021294800F082FD78B10821264800F0E4
:100B50007DFD50B10421244800F078FD28B1012129
:100B6000224800F073FD012822D10A2000F021FB69
:100B700000201F49087010211B4800F067FD08B9CC
:100B8000012010BD0821184800F060FD08B90220BE
:100B9000F7E70421144800F059FD08B90320F0E7F5
:100BA0000121124800F052FD01281BD10420E8E782
:100BB00010210D4800F04AFD012813D108210A48F0
:100BC00000F044FD01280DD10421074800F03EFD4E
:100BD000012807D10121054800F038FD10B9012096
:100BE000034908700020CCE70010024000000240DA
:100BF0001C00002000B58DB00121022000F062FF32
:100C00000121080200F0B8FF03200B908DF830009E
:100C100000208DF833000BA92B4800F0B5FC012112
:100C2000080200F0FEFF00214FF4807000F0F9FF91
:100C3000002007900A9009904FF48030089007A890
:100C400002F042FE002001908DF808008DF80900A6
:100C50000390059001208DF8180001A91B4802F0AF
:100C600004FE0121194802F046FE0DB000BD10B58A
:100C70000446072301222146144802F07CFE134853
:100C800002F0D5FE00BF0221104802F0F1FF00285B
:100C9000F9D00E4802F007FF10BD2DE9F0410746DC
:100CA0000C460025002608E03846FFF7E0FF054423
:100CB000052000F07EFA701CC6B2A642F4DBB5FB3C
:100CC000F4F080B2BDE8F081000402400020014051
:100CD00010B500F0B7F810BD70B50446002600F05E
:100CE000E6F8A02000F08FF900F022F9201200F0C1
:100CF0008AF900F01DF92546E11704EB116109128C
:100D0000A4EB0121C8B200F07EF900F011F900F067
:100D1000CEF8A12000F077F900F00AF9002000F0E9
:100D20009FF9064600F0E5F8304670BD70B5044600
:100D30000E4600F0BCF8A02000F065F900F0F8F8CD
:100D4000201200F060F900F0F3F82546E11704EBFB
:100D500011610912A4EB0121C8B200F054F900F0AE
:100D6000E7F8304600F04FF900F0E2F800F0C1F883
:100D70000A2000F01EFA70BD2DE9F04105460E462E
:100D80001746002409E0E20026FA02F2D1B22A193D
:100D900090B2FFF7CBFF601CC4B2BC42F3DBBDE8EE
:100DA000F0812DE9F04107460C460026002509E0B8
:100DB00036023919491B491E88B2FFF78DFF0644D8
:100DC000681CC5B2A542F3DB3046BDE8F08110B522
:100DD000FF20FFF781FF0446552C01D1002010BDF4
:100DE0005521FF20FFF7A2FFFF20FFF775FF044604
:100DF000552C01D10020F2E70120F0E770B506463E
:100E00000C46154608E03046721C96B2FFF764FFA8
:100E100004F8010B681E85B2002DF4D170BD70B5C9
:100E200005460C46164606E021782846FFF77EFF69
:100E3000681C85B2641C3000A6F101018EB2F3D1AA
:100E400070BD00001CB50121022000F03BFE4FF4F4
:100E50004070009001208DF8040000208DF80600FD
:100E600003208DF8050001208DF80700694694489D
:100E700000F08AFB0120934908609349C1F8A4025D
:100E80008020009001208DF8040000208DF80600DD
:100E900003208DF8050000208DF80700694688487A
:100EA00000F072FB00208749091F08601CBD10B5C7
:100EB0008348006820F440208149086008460068A3
:100EC00040F48020086001207E49091D08607E49A9
:100ED000C1F8A002042000F042F900207949091D60
:100EE0000860042000F03BF900207749C1F8A00217
:100EF00010BD10B57248006820F4402070490860A9
:100F00000846006840F48020086000206D490860B1
:100F10006D49C1F8A402042000F021F901206949BB
:100F200008606949C1F8A402042000F018F910BD56
:100F300010B500246248006820F440206049086031
:100F400008460068086001205E49091D086000F03D
:100F500006F901205C49C1F8A00200F000F907E0A1
:100F6000601CC4B2FA2C03DDFFF7C3FF012010BDE3
:100F700054487C3800680028F2D15249086000BF0C
:100F8000F5E710B500204F4908604D48006820F48F
:100F900040204B4908600846006840F48020086003
:100FA00000204949C1F8A402022000F0D8F801202D
:100FB00044490860022000F0D2F800204249C1F8FC
:100FC000A00210BD10B500203E4908603C480068F2
:100FD00020F440203A4908600846006840F4802028
:100FE000086001203849C1F8A402022000F0B7F8D7
:100FF000012034490860022000F0B1F80020324995
:10100000C1F8A00210BD70B504462D48006820F458
:1010100040202B4908600846006840F480200860A2
:10102000002028490860002517E0E0092549091D2E
:1010300008606006040E022000F091F801202249A9
:10104000C1F8A002022000F08AF800201D490860C3
:10105000022000F084F8681CC5B2082DE5DB70BDE5
:1010600070B5054600241648006820F44020144955
:101070000860084600680860002616E00020114954
:101080000860022000F06BF801200F49C1F8A002AF
:101090006006040E0B487C38006808B1601CC4B2BE
:1010A000012000F05CF8701CC6B2082EE6DB15B912
:1010B000FFF788FF01E0FFF764FF204670BD0000E6
:1010C00000040240A08240420080404210B502F07D
:1010D00085FF10BD10B502F0C6FF10BD10B5044667
:1010E000204604F0D3FE10BD10B542480078012818
:1010F0000ED102F020FF40488088401C3E49888085
:1011000008460089401C088103F05BF802F02EFFBE
:1011100010BD70B504466FF0040000F091F9E117BE
:1011200004EB5171C1F3C701344A1170E11704EBAC
:101130005171CD104FF47A70454301203049088039
:101140004FF0E020006940F002004FF0E02108611C
:1011500008464561006940F00100086170BD2DE955
:10116000F047074600264FF0E020D0F814902348BF
:10117000007807FB00F8FFF7A9FF4FF0E020856932
:1011800011E04FF0E0208469AC420CD0AC4202D2B6
:10119000281B064403E0A9EB040028440644254626
:1011A000464500D300E0ECE700BFFFF793FFBDE842
:1011B000F08770B504460F480078A0B11148007858
:1011C00088B90F480088844206DB0D48008894FBEC
:1011D000F0F52846FFF782FF0948008894FBF0F1FC
:1011E00000FB114084B24FF47A7104FB01F0FFF769
:1011F000B6FF70BD62000020BC1A00201E00002057
:10120000200000205500002000BF704700BF4F4A5B
:10121000128802F04002002AF9D0C2B24B4B1B1DCB
:101220001A80704710B588B004460121022000F0F2
:1012300049FC0121880400F08EFC07220A21444861
:1012400000F02DFA07220B21414800F028FA4FF454
:101250004060069002208DF81C008DF81D000020D3
:101260008DF81E0001208DF81F0006A9384800F0F7
:101270008BF902940020ADF80C00ADF80E00ADF82B
:101280001000ADF814000C20ADF8120002A92F4890
:1012900000F0D3FD01212D4800F057FE012240F25D
:1012A00025512A4800F007FF27208DF8040003206D
:1012B0008DF805008DF8060001208DF8070001A8C3
:1012C00000F071F808B010BD10B502F034FE40F225
:1012D00025511E4800F02AFF10B31C4800F064FEA0
:1012E000C4B21C48008800F40040C8B919480088FE
:1012F00000F4804060B10A2C03D00020154908801A
:1013000020E01448008840F400401249088019E0A9
:101310000D2C06D10F48008840F480400D4908800C
:1013200010E00C480088C0F30D000B490C5409482C
:101330000088401C0749088008460088C72801DD4E
:101340000020088002F012FE10BD0000004800409E
:101350000004024028000020BC3A002009488047D1
:1013600009480047FEE7FEE7FEE7FEE7FEE7FEE787
:10137000FEE7FEE7FEE7FEE704480549054A064B9F
:1013800070470000510600088901000878480020D5
:10139000784E0020784A0020784A002032490143E4
:1013A000324A1160704770B5002100230F22C478C3
:1013B0001CB32E4C246804F4E064C4F5E064C4F368
:1013C0000721C1F10404E3B20A4144789C40E1B230
:1013D0008478144021430C07210E254C0578615573
:1013E000047804F01F050124AC4005786D11AD00B0
:1013F00005F1E025C5F8004109E0047804F01F0577
:101400000124AC401B4D0678761145F8264070BD8E
:10141000194A0A400243154B1B1F1A60704739B125
:10142000124A121D12680243104B1B1D1A6006E07F
:101430000E4A121D126882430C4B1B1D1A60704726
:10144000042808D14FF0E021096941F004014FF070
:10145000E022116107E04FF0E021096921F0040169
:101460004FF0E022116170470000FA050CED00E03A
:1014700000E400E080E100E080FFFF1F10B50446BB
:101480009848844208D10121084600F086FB0021DB
:10149000012000F082FB76E09348844208D10121CC
:1014A000022000F07AFB0021022000F076FB6AE0C7
:1014B0008E48844208D10121042000F06EFB0021F7
:1014C000042000F06AFB5EE08948844208D10121D3
:1014D000082000F062FB0021082000F05EFB52E0D3
:1014E0008448844208D10121102000F056FB0021DD
:1014F000102000F052FB46E07F48844208D10121D1
:10150000202000F04AFB0021202000F046FB3AE0BA
:101510007A48844208D10121402000F03EFB00219E
:10152000402000F03AFB2EE07548844208D10121AA
:10153000802000F032FB0021802000F02EFB22E012
:101540007048844208D10121801500F026FB00215B
:10155000A01500F022FB16E06B48844208D101215F
:10156000401500F01AFB0021601500F016FB0AE0A0
:101570006648844207D10121001500F00EFB0021CE
:10158000201500F00AFB10BDF0B50A46002100232B
:10159000002400BF3DE0012505FA01F3156805EAC6
:1015A00003049C4234D105684F000326BE40B54376
:1015B000056015794E00B54006683543056015791C
:1015C000012D02D01579022D16D185684F00032612
:1015D000BE40B543856055794E00B54086683543B9
:1015E0008560456801268E40B5434560456896791B
:1015F0008E40B6B235434560C5684F000326BE40F5
:10160000B543C560D5794E00B540C6683543C56061
:10161000491C1029BFD3F0BD4FF6FF7101600021B6
:10162000017141718171C171704708B54FF4803209
:101630000092009A0A430092009AC261C161009A26
:10164000C261C2690092C269009208BD02460020D0
:1016500013690B400BB1012000E0002070470146E8
:10166000086980B270470246002053690B400BB1F5
:10167000012000E0002070470146486980B27047B1
:1016800001837047418370470AB1018300E04183C1
:1016900070474161704742694A4042617047F0B506
:1016A000002300244D07ED0E02FA05F3CE1000F1E1
:1016B000200555F826504E07F70E0F26BE40B543BD
:1016C000CF1000F1200646F82750CE1000F120057B
:1016D00055F8265045EA0304CE1000F1200545F8E0
:1016E0002640F0BD00000240000402400008024015
:1016F000000C02400010024000140240001802409A
:10170000001C024000200240002402400028024049
:10171000F948006840F00100F74908600020F649E8
:1017200008310860F4480068F4490840F24908604C
:10173000F348091D0860F348EF4984310860F04818
:101740001038091D0860EC48006820F48020EA4940
:1017500008600020E8490C310860E7498C310860D6
:1017600070470021E44A921C1170114608707047BE
:1017700010B501460022002300204A11012A02D19F
:10178000DD4C236808E0022A03D1DB4C7034236867
:1017900002E0D94C7434236801F01F020124944004
:1017A0001C400CB1012000E0002010BD38B5002025
:1017B00000900024002500BF3120FFF7D9FF054627
:1017C0000098401C00900098B0F5A04F01D0002D6B
:1017D000F2D03120FFF7CCFF08B1012400E0002453
:1017E000204638BD01460020C34A106820F0F800AA
:1017F00040EAC10010607047C3490860704700218B
:10180000BD4A703211701170012802D004280AD12B
:1018100004E00121B84A7032117005E00521B64A92
:101820007032117000E000BF00BF7047B749086018
:10183000704770B5049C41EA82150126C6EB530639
:1018400045EA0645054345EA0465AB4E361D35605D
:1018500070BDAD4908667047820142EA0172A64B2D
:1018600084331A607047A8498866704710B58301B1
:1018700043EA016343EA02739F4C8834236010BD3E
:10188000A14908677047A049C86470470246002014
:10189000994B0833186820F0EC6042EA01031843C2
:1018A000954B08331860704702460020924B08336E
:1018B000186820F0784042EA010318438E4B083341
:1018C00018607047014600208B4A0832106820F0EB
:1018D000030008431060704787480830006800F034
:1018E0000C00704701460020834A0832106820F03F
:1018F000F000084310607047014600207E4A08321D
:10190000106820F4E0500843106070470146002042
:10191000794A0832106820F4604040EAC100106043
:101920007047F0B500210022002402250026022382
:10193000714F08373F6807F00C0121B1042905D029
:10194000082937D105E0724F076036E0714F076014
:1019500033E0694F3F1D3F68C7F38056664F3F1D18
:101960003F6807F03F036EB16A4FB7FBF3F7DFF84C
:1019700088C10CF1040CDCF800C0CCF3881C07FB18
:101980000CF40CE0624FB7FBF3F7DFF86CC10CF11D
:10199000040CDCF800C0CCF3881C07FB0CF4564F99
:1019A0003F1D3F68C7F301477F1C7D00B4FBF5F77F
:1019B000076002E0564F076000BF00BF4E4F083778
:1019C0003F6807F0F0010909534F7A5C0768D74078
:1019D0004760494F08373F6807F4E051890A4E4F86
:1019E0007A5C4768D7408760434F08373F6807F401
:1019F0006041490B484F7A5C4768D740C760F0BDEB
:101A0000002100F44072B2F5407F0AD13A4A083210
:101A1000116821F4F811414A02401143364A083254
:101A20001160354A70321268C0F30B031A43324B0F
:101A300070331A607047354944390860704733493C
:101A400040390860704736490860704701460020F9
:101A5000294A8C32106820F01F004A1E1043264A83
:101A60008C321060704701460020234A8C32106887
:101A700020F4F8504A1E40EA02201F4A8C321060BF
:101A80007047014600201C4A8C32106820F4401038
:101A900008431060704701460020174A8C321068D6
:101AA00020F4400008431060704701460020124AAD
:101AB0008C32106820F44030084310607047194998
:101AC0000860704739B10C4A3032126802430A4B41
:101AD00030331A6006E0084A303212688243064BFF
:101AE00030331A607047F9B1034A34321268024346
:101AF000014B34331A601CE000380240FFFFF6EA65
:101B0000103000240030002000004742800E474281
:101B10000024F40000127A002A000020FFFCFF0FCE
:101B20005C014742E01147428F4A126882438E4B64
:101B30001A60704739B18C4A121D126802438A4BF1
:101B40001B1D1A6006E0884A121D12688243864BEC
:101B50001B1D1A60704739B1834A0C321268024368
:101B6000814B0C331A6006E07F4A0C3212688243C4
:101B70007D4B0C331A60704739B17B4A10321268C2
:101B80000243794B10331A6006E0774A103212682C
:101B90008243754B10331A60704739B1724A243A48
:101BA00012680243704B243B1A6006E06E4A243AE6
:101BB000126882436C4B243B1A60704739B16A4A01
:101BC000203A12680243684B203B1A6006E0664ADE
:101BD000203A12688243644B203B1A60704739B147
:101BE000614A1C3A126802435F4B1C3B1A6006E0D4
:101BF0005D4A1C3A126882435B4B1C3B1A6070477B
:101C000039B1594A143A12680243574B143B1A60CF
:101C100006E0554A143A12688243534B143B1A604B
:101C2000704739B1504A103A126802434E4B103B8C
:101C30001A6006E04C4A103A126882434A4B103B45
:101C40001A60704739B1484A1C3212680243464B49
:101C50001C331A6006E0444A1C3212688243424B2D
:101C60001C331A60704739B13F4A20321268024370
:101C70003D4B20331A6006E03B4A20321268824313
:101C8000394B20331A60704739B1374A2432126811
:101C90000243354B24331A6006E0334A243212687B
:101CA0008243314B24331A60704739B12E4A2C32AB
:101CB000126802432C4B2C331A6006E02A4A2C325D
:101CC00012688243284B2C331A60704739B1264A78
:101CD000303212680243244B30331A6006E0224A45
:101CE000303212688243204B30331A60704701282B
:101CF00008D11D493C31096841F008011A4A3C32BB
:101D0000116007E018493C31096821F00801164AC2
:101D10003C321160704739B1134A273A12780243B6
:101D2000114B273B1A7006E00F4A273A127882437C
:101D30000D4B273B1A7070470B484030006840F04D
:101D40008070094940310860704701460020064A0A
:101D5000283A12680A400AB1012000E000207047CA
:101D600001492639087070473438024010B50446DE
:101D7000FA48844208D101211020FFF752FF0021C8
:101D80001020FFF74EFF57E0F548844209D10121AA
:101D90004804FFF735FF00214FF40030FFF730FF14
:101DA0004AE0F048844209D101218804FFF728FF66
:101DB00000214FF48020FFF723FF3DE0EA488442F2
:101DC00009D10121C804FFF71BFF00214FF40020B7
:101DD000FFF716FF30E0E548844209D101210805EC
:101DE000FFF70EFF00214FF48010FFF709FF23E0FB
:101DF000DF48844208D101212020FFF712FF002193
:101E00002020FFF70EFF17E0DA48844209D10121B4
:101E10008807FFF7F5FE00214FF08040FFF7F0FE46
:101E20000AE0D548844207D101214005FFF7E8FECA
:101E300000216005FFF7E4FE10BD2DE9FF470546D0
:101E40000E460024A14600BFA046B08900B100BFE5
:101E50002C8A24F44054F08804432C82AC8941F24B
:101E60000C608443B0883189084371890843044376
:101E7000AC81AC8A24F44074B0890443AC826846D7
:101E8000FFF74FFDB548854202D0B948854202D1DF
:101E9000DDF80C9001E0DDF80890A88900F400401E
:101EA00040B109EBC90000EB091031684900B0FBF3
:101EB000F1F707E009EBC90000EB09103168890070
:101EC000B0FBF1F76420B7FBF0F0040120096421B6
:101ED00001FB1078A88900F4004040B1322000EBEB
:101EE000C800B0FBF1F000F00700044308E0322026
:101EF00000EB08106421B0FBF1F000F00F00044388
:101F00002C81BDE8FF874FF41651016000218180CC
:101F1000C18001810C21418100218181704710B570
:101F200002460020108A20F470600B884C882343FE
:101F30008C882343CC8823431843108210BD002192
:101F4000018041808180C180704721B1828942F443
:101F50000052828104E082894DF6FF731A4082812B
:101F60007047028B02F47F420283028B0A43028392
:101F7000704721B1828942F40042828103E0828964
:101F8000C2F30E028281704721B1828A42F400625C
:101F9000828204E0828A4FF2FF731A408282704785
:101FA000C1F308028280704701468888C0F30800A8
:101FB0007047028A4FF6F0731A400282028A0A437F
:101FC0000282704721B1828942F00202828104E0DC
:101FD00082894FF6FD731A408281704782894FF2E1
:101FE000FF731A40828182890A4382817047028A84
:101FF0004FF6DF731A400282028A0A430282704758
:1020000021B1028A42F48042028204E0028A4BF645
:10201000FF731A4002827047818941F0010181817A
:10202000704721B1828A42F00802828204E0828AEB
:102030004FF6F7731A4082827047028BD2B2028346
:10204000028B42EA01220283704721B1828A42F068
:102050002002828204E0828A4FF6DF731A40828275
:10206000704721B1828A42F01002828204E0828AA3
:102070004FF6EF731A4082827047828A4FF6FB73E5
:102080001A408282828A0A438282704721B1828A00
:1020900042F00202828204E0828A4FF6FD731A4007
:1020A000828270471AB1838A0B43838202E0838A5B
:1020B0008B4383827047F0B5034600240026002539
:1020C000002040F66A17B94200D100BF1846C1F39C
:1020D000421401F01F06012707FA06F5012C01D171
:1020E0000C3004E0022C01D1103000E014301AB1A1
:1020F00007682F43076002E00768AF430760F0BD41
:1021000002460020B1F5007F00D100BF13880B40CC
:102110000BB1012000E00020704701F40072B2F51D
:10212000007F00D100BFCA430280704770B50246ED
:10213000002400230025002040F66A16B14200D199
:1021400000BFC1F3421501F01F03012606FA03F395
:10215000012D13D19689334017E000000010014093
:102160000044004000480040004C00400050004047
:102170000014014000780040007C0040022D02D194
:10218000168A334001E0968A33400C12012606FA83
:1021900004F41688344013B10CB1012000E0002093
:1021A00070BD10B50022002340F66A14A14200D190
:1021B00000BF0A1201249440A3B2DC43048010BD86
:1021C00010B50446FE48844208D101210846FFF7B5
:1021D00028FD00210120FFF724FD9DE0B4F1804F90
:1021E00008D101210846FFF70BFD00210120FFF770
:1021F00007FD91E0F348844208D101210220FFF756
:10220000FFFC00210220FFF7FBFC85E0EE48844242
:1022100008D101210420FFF7F3FC00210420FFF77F
:10222000EFFC79E0E948844208D101210820FFF75A
:10223000E7FC00210820FFF7E3FC6DE0E44884425E
:1022400008D101211020FFF7DBFC00211020FFF74F
:10225000D7FC61E0DF48844208D101212020FFF74C
:10226000CFFC00212020FFF7CBFC55E0DA48844268
:1022700008D101210220FFF7D4FC00210220FFF742
:10228000D0FC49E0D548844209D101210804FFF778
:10229000C8FC00214FF48030FFF7C3FC3CE0D0487D
:1022A000844209D101214804FFF7BBFC00214FF40F
:1022B0000030FFF7B6FC2FE0CA48844209D1012163
:1022C0008804FFF7AEFC00214FF48020FFF7A9FC43
:1022D00022E0C548844208D101214020FFF790FC4C
:1022E00000214020FFF78CFC16E0C048844208D152
:1022F00001218020FFF784FC00218020FFF780FC73
:102300000AE0BB48844207D101218015FFF778FC21
:102310000021A015FFF774FC10BD00220288A84B15
:1023200098420ED0AC4B98420BD0B0F1804F08D001
:10233000A44B984205D0A44B984202D0A34B98429C
:1023400004D14FF68F731A404B881A43A04B984222
:1023500007D0A04B984204D04FF6FF431A400B8998
:102360001A4302804B68C3620B880385944B9842E2
:1023700002D0994B984201D18B7A03860123838244
:1023800070474FF0FF3141600021018001814180A1
:10239000817270470185828270470A460021018858
:1023A0004FF68F73194011430180704741627047A7
:1023B000C16270470146486A70470146088D704700
:1023C00021B1028842F00202028004E002884FF646
:1023D000FD731A400280704721B1028842F0040266
:1023E000028004E002884FF6FB731A4002807047B7
:1023F00021B1028842F08002028004E002884FF698
:102400007F731A400280704702884FF6F7731A40B4
:10241000028002880A430280704702884FF6FF4319
:102420001A40028002880A430280704721B1028864
:1024300042F00102028004E002884FF6FE731A4067
:102440000280704770B5002400220023058C4FF6EF
:10245000FE7635400584028C8388048B4FF68F7599
:102460002C40B51E2C400D882C43751E2A408D89AA
:102470002A434D882A43524DA84202D0564DA842C5
:1024800013D14FF6F7752A40CD892A434FF6FB75D5
:102490002A408D882A434FF6FF652B404FF6FF55A3
:1024A0002B400D8A2B434D8A2B43838004838D68F8
:1024B0004563028470BD70B5002400220023058CA2
:1024C0004FF6EF7635400584028C8388048B48F6FE
:1024D000FF752C404FF6FF452C400D884FF6FF76D8
:1024E00006EA05252C434FF6DF752A408D8906EA5A
:1024F00005152A434D8806EA05152A43304DA842A2
:1025000002D0354DA8421DD14FF67F752A40CD89A6
:102510004FF6FF7606EA05152A434FF6BF752A40A7
:102520008D8806EA05152A434FF6FF352B404FF2FA
:10253000FF752B400D8A06EA85052B434D8A06EA76
:1025400085052B43838004838D688563028470BD79
:1025500070B5002400220023058C4FF6FF6635403D
:102560000584028C8388848B4FF68F752C404FF640
:10257000FC752C400D882C434FF6FF552A408D8961
:102580004FF6FF7606EA05252A434D8806EA05251B
:102590002A430B4DA84202D00F4DA84238D14FF22A
:1025A000FF752A40CD894FF6FF7606EA05252A43B6
:1025B0004FF6FF352A408D8806EA05252A4319E0A3
:1025C000000001400004004000080040000C0040F2
:1025D0000010004000140040000401400040014091
:1025E000004401400048014000180040001C004029
:1025F000002000404EF6FF752B404DF6FF752B4036
:102600000D8A06EA05152B434D8A06EA05152B436C
:10261000838084838D68C563028470BD70B5002299
:1026200000230024058C4EF6FF7635400584038C8C
:102630008488828B48F6FF752A404FF6FF452A4072
:102640000D884FF6FF7606EA05252A434DF6FF75FD
:102650002B408D8906EA05352B434D8806EA053562
:102660002B43FE4DA84202D0FD4DA84208D14BF6A7
:10267000FF752C400D8A4FF6FF7606EA85152C4330
:10268000848082838D680564038470BD002101808D
:102690004180818081608181C18101824182704756
:1026A00070B50346002000241846183001258D40DF
:1026B000ACB21D8CA5431D8409B108290AD100EBD9
:1026C000610005684FF68F76354005600568154353
:1026D00005600FE00D1FC5F34E052844056848F658
:1026E000FF763540056005684FF6FF7606EA02265C
:1026F0003543056070BD4163704781637047C163B6
:102700007047016470470A460021018B4FF68F73B2
:1027100019401143018370470A460021018B48F696
:10272000FF7319404FF6FF7303EA02231943018335
:1027300070470A460021818B4FF68F731940114371
:10274000818370470A460021818B48F6FF73194048
:102750004FF6FF7303EA02231943818370470A4649
:102760000021018B4FF6F773194011430183704725
:102770000A460021018B4FF2FF7319404FF6FF7399
:1027800003EA02231943018370470A460021818B23
:102790004FF6F77319401143818370470A460021B1
:1027A000818B4FF2FF7319404FF6FF7303EA022348
:1027B0001943818370470A460021018B4FF6FB7352
:1027C00019401143018370470A460021018B4FF6DF
:1027D000FF3319404FF6FF7303EA022319430183C5
:1027E00070470A460021818B4FF6FB731940114355
:1027F000818370470A460021818B4FF6FF331940D1
:102800004FF6FF7303EA02231943818370470A4698
:102810000021018B4FF67F731940114301837047EC
:102820000A460021018BC1F30E014FF6FF7303EA44
:1028300002231943018370470A460021818B4FF61A
:102840007F7319401143818370470A460021818BB1
:10285000C1F30E014FF6FF7303EA0223194381838C
:1028600070470A460021018C4FF6FD731940114351
:10287000018470470A460021018C4FF6F773194016
:102880001143018470470A460021018C4FF6DF7323
:1028900019404FF6FF7303EA02131943018470478E
:1028A0000A460021018C4FF67F7319404FF6FF73E3
:1028B00003EA02131943018470470A460021018C80
:1028C0004FF6FF5319404FF6FF7303EA02231943F3
:1028D000018470470A460021018C4FF2FF731940B2
:1028E0004FF6FF7303EA02231943018470470A4637
:1028F0000021018C4DF6FF7319404FF6FF7303EA78
:10290000023319430184704730B5002301248C4001
:10291000A3B2048C9C430484048C02FA01F5ADB28A
:102920002C43048430BD30B5002304248C40A3B272
:10293000048C9C430484048C02FA01F5ADB22C4350
:10294000048430BD828B4FF2FF331A408283828B26
:102950004FF6FF7303EA01231A4382837047F0B5F1
:102960000C461546002100220026078C4EF6FF7CFF
:1029700007EA0C070784818B028C4FF6FF7707EA82
:10298000043640F6FF4739404FF6FF7707EA052740
:1029900039434FF6FF7707EA0337394345F6FF77A8
:1029A0003A4046F480573A4381830284F0BD828BDB
:1029B0004FF6F3731A408283828B0A4382837047F7
:1029C000F0B50C461546002100220026078C4FF674
:1029D000FF6C07EA0C070784818B028C4FF6FF77A8
:1029E00007EA04264FF60C7739404FF6FF7707EADF
:1029F00003172F4339434FF2FF573A4046F480778D
:102A00003A4381830284F0BD028B4FF2FF331A40B8
:102A10000283028B4FF6FF7303EA01231A430283FA
:102A20007047F0B50C461546002100220026078CA1
:102A30004FF6EF7C07EA0C070784018B028C4FF6F8
:102A4000FF7707EA041640F6FF4739404FF6FF7755
:102A500007EA033739434FF6FF7703E000000140F0
:102A60000004014007EA052739434FF65F773A40F3
:102A700046F010073A4301830284F0BD028B4FF603
:102A8000F3731A400283028B0A4302837047F0B546
:102A90000C46154600210022068C4FF6FE773E407C
:102AA0000684018B028C4FF60C7631407E1C06EAC0
:102AB00003162E4331434FF6F576324044F00106BB
:102AC000324301830284F0BD70B505460C46208870
:102AD00050B92389A28861882846FFF7D8FFE1888A
:102AE0002846FFF7CBFF25E0208804280AD1238958
:102AF000A28861882846FFF794FFE1882846FFF7FF
:102B000083FF17E0208808280AD12389A2886188DA
:102B10002846FFF755FFE1882846FFF748FF09E000
:102B20002389A28861882846FFF719FFE188284693
:102B3000FFF708FF70BD00210180418001218180E5
:102B40000021C180018170472DE9F04105460C4606
:102B500000260127608808B9022600E00026A08828
:102B6000012801D1022700E001272088A0B923898C
:102B7000A28861882846FFF78AFFE1882846FFF788
:102B80007DFF23893A4631462846FFF74AFFE18810
:102B90002846FFF739FF13E02389A2886188284679
:102BA000FFF73FFFE1882846FFF72EFF23893A46CB
:102BB00031462846FFF76BFFE1882846FFF75EFFA6
:102BC000BDE8F0810146486B70470146886B70474D
:102BD0000146C86B70470146086C70470A884B88ED
:102BE0001A438B881A43CB881A430B891A434B89A3
:102BF0001A438B891A43A0F84420704700210180B2
:102C000041808180C180018141818181704731B1E2
:102C1000B0F8442042F40042A0F8442005E0B0F8A7
:102C20004420C2F30E02A0F84420704721B18288EC
:102C300042F00402828004E082884FF6FB731A405F
:102C40008280704721B1828842F00102828004E0D4
:102C500082884FF6FE731A40828070471AB18389CA
:102C60000B43838102E083898B4383817047818298
:102C7000704702460020138A0B400BB1012000E090
:102C800000207047CA430282704730B502460020D8
:102C900000230024158A05EA0103958905EA010449
:102CA00013B10CB1012000E0002030BDCA43028204
:102CB000704741EA0203A0F8483070471AB183898F
:102CC0000B43838102E083898B438381704721B169
:102CD000828842F00802828004E082884FF6F7730F
:102CE0001A408280704701894FF6F87211400181C5
:102CF00070470A46002101894FF68F73194011432E
:102D00000181704730B504460D4629462046FFF73D
:102D1000F0FF208940F00700208130BD2DE9F0410F
:102D200004460D4616461F46602D06D13B4601223D
:102D300031462046FFF775FE05E03B46012231464D
:102D40002046FFF7A4FE29462046FFF7D2FF208940
:102D500040F007002081BDE8F08130B50C4600212D
:102D60000189C9B24FF6FF7505EA032515432543CE
:102D70002943018130BD2DE9F04105460E46174635
:102D80009846002443463A4631462846FFF7E5FF79
:102D90002C894FF6F870044044F007044FF68F700A
:102DA000044044F070042C81BDE8F081F0B5044685
:102DB0000D4616461F463B46324629462046FFF73B
:102DC000CCFF208940F480402081F0BD82884FF6FE
:102DD0008F731A40828082880A43828070470289FA
:102DE0004FF6F8731A40028102890A430281704744
:102DF00002894FF67F731A40028102890A430281D9
:102E00007047F0B50C4615461E46002100220023EF
:102E10000189028B038C4FF6F877394021434FF636
:102E2000FC473A4040F201173A434FF6DD773B400A
:102E30004FF6FF7707EA06172F433B4301810283D2
:102E40000384F0BD21B1828842F08002828004E0D8
:102E500082884FF67F731A4082807047A0F8501026
:102E60007047000010B50446FE48844209D1012194
:102E70004806FEF7C5FE00214FF00070FEF7C0FEC9
:102E800008E001218806FEF7BBFE00214FF08060BC
:102E9000FEF7B6FE10BD30B50246002000231468D0
:102EA00024F002041460146844F00104146000E08B
:102EB0005B1C546804F001041CB94FF6FF74A34274
:102EC000F6D1546804F001040CB900206CE08C7950
:102ED000012C04D1146844F08004146003E01468E9
:102EE00024F080041460CC79012C04D1146844F0DF
:102EF0004004146003E0146824F0400414600C7A69
:102F0000012C04D1146844F02004146003E0146818
:102F100024F0200414604C7A012C04D1146844F08D
:102F20001004146003E0146824F0100414608C7A18
:102F3000012C04D1146844F00804146003E0146800
:102F400024F008041460CC7A012C04D1146844F0F5
:102F50000404146003E0146824F0040414608C7802
:102F6000A407CD7844EA05640D7944EA05444D7917
:102F700044EA05540D886D1E2C43D461146824F076
:102F800001041460002300E05B1C546804F0010499
:102F90001CB14FF6FF74A342F6D1546804F001044B
:102FA0000CB1002000E0012030BD10B50021837A73
:102FB000012202FA03F1AC4A126842F00102AA4B64
:102FC0001A60A94A1C3212688A43A74B1C331A6044
:102FD000027BCAB9A44A0C3212688A43A24B0C3352
:102FE0001A604288C38842EA03439F4A4032847A87
:102FF00042F834300288838842EA03439A4A4032D6
:10300000847A02EBC4025360027B012A19D1964AEA
:103010000C3212680A43944B0C331A6042880388BE
:1030200042EA0343904A4032847A42F83430C288FC
:10303000838842EA03438C4A4032847A02EBC4021A
:103040005360C27A3AB9884A121D12688A43864B85
:103050001B1D1A6006E0844A121D12680A43824B47
:103060001B1D1A60028932B97F4A143212688A43E2
:103070007D4B14331A600289012A06D17A4A143230
:1030800012680A43784B14331A60427B012A06D136
:10309000754A1C3212680A43734B1C331A60724A19
:1030A000126822F00102704B1A6010BD002181717C
:1030B000C171017241728172C1728170C17003214C
:1030C000017102214171012101807047664909683F
:1030D00041F00101644A11601146096843F60E721D
:1030E0009143614A11601146096841EA002111606B
:1030F0001146096821F001011160704721B1026891
:1031000042F48032026003E0026822F480320260FE
:103110007047E1B1026842F0800202604FF4C2726F
:10312000125842F480734FF4C27213504FF4CA72B3
:10313000125842F480734FF4CA7213504FF4D27293
:10314000125842F480734FF4D27213501BE002689D
:1031500022F0800202604FF4C272125822F480738F
:103160004FF4C27213504FF4CA72125822F4807393
:103170004FF4CA7213504FF4D272125822F4807373
:103180004FF4D2721350704710B502460020936876
:1031900003F08063B3F1806F00D110E0936803F017
:1031A0000063B3F1006F01D1012008E0936803F0E0
:1031B0008053B3F1805F01D1022000E00420042895
:1031C00079D002F5C07303EB00131B6803F0010410
:1031D00002F5C07303EB00131C600B7A7BB94B7ACA
:1031E0000C8843EA445302F5C07404EB00142468CD
:1031F000234302F5C07404EB0014236010E00B7A43
:103200004C6843EAC4034C7A234302F5C07404EBD0
:1032100000142468234302F5C07404EB00142360F7
:103220008B7A03F00F038B7202F5C07303EB00136C
:103230005B6823F00F0402F5C07303EB00135C60BE
:1032400002F5C07303EB00135B688C7A234302F52D
:10325000C07404EB001463608B7B1C064B7B44EA58
:10326000034403E000640040006600400B7B44EA36
:103270000323CC7A234302F5C07404EB0014A3604B
:103280008B7C1C064B7C44EA03440B7C44EA0323FE
:10329000CC7B234302F5C07404EB0014E36002F519
:1032A000C07303EB00131B6843F0010402F5C07305
:1032B00003EB00131C6010BD10B50246002321B1C2
:1032C000012907D002290FD109E09068F94C00EAE2
:1032D00004030BE09068F84C00EA040306E09068F1
:1032E000F64C00EA040301E0002300BF00BFF44CE9
:1032F000181BA34216D007DC83B16FF0806018441E
:1033000070B1022818D111E0B0F5007F10D0ED4C5B
:10331000204448B1B0F5003F0ED10BE002230DE090
:1033200000230BE0002309E0002307E0012305E070
:10333000012303E0012301E0002300BF00BFD8B256
:1033400010BD21B1012907D002290FD109E08268FF
:1033500042F0800282600AE0826842F400428260A9
:1033600005E0826842F40002826000E000BF00BF16
:10337000704710B500F5D87303EB01131B6803F019
:1033800004031372137A53B900F5D87303EB0113D6
:103390001B6840F2FF7404EA5353136009E000F520
:1033A000D87303EB01131B686FF0604404EAD30386
:1033B000536000F5D87303EB01131B6803F002039D
:1033C000537200F5D87303EB01135B6803F00F032E
:1033D000937200F5D87303EB01135B681B0AD37477
:1033E00000F5D87303EB01139B68D37200F5D87313
:1033F00003EB01139B681C0A147300F5D87303EBED
:1034000001139B681C0C547300F5D87303EB011374
:103410009B681B0E937300F5D87303EB0113DB68F5
:10342000D37300F5D87303EB0113DB681C0A147423
:1034300000F5D87303EB0113DB681C0C547400F522
:10344000D87303EB0113DB681B0E937421B9C368B7
:1034500043F02003C36003E0036943F020030361EA
:1034600010BD21B9C26842F02002C26003E00269C7
:1034700042F02002026170470246002019B9D36869
:1034800003F0030006E0012903D1136903F00300F0
:1034900000E00020704710B502460B4600204FF6B2
:1034A000FF71BBB9146824F0020444F001041460F5
:1034B00000E0491E546804F00304012C01D00029E7
:1034C000F7D1546804F00304012C01D0002032E04D
:1034D000012030E0012B13D1146824F003041460A0
:1034E00000E0491E546804F003040CB10029F8D12F
:1034F000546804F003040CB100201CE001201AE021
:10350000022B17D1146824F0010444F00204146063
:1035100000E0491E546804F00304022C01D0002985
:10352000F7D1546804F00304022C01D0002002E01B
:10353000012000E0002010BD014600200A6822F0B2
:10354000010242F002020A604A6802F00302022A03
:1035500000D10120704701464FF6FF7200200B6832
:1035600023F002030B6000E0521E4B6803F00203DD
:10357000022B01D1002AF7D14B6803F00203022B82
:1035800000D001207047014600208A6902F07000D7
:103590007047014600208A69100E704701460020DE
:1035A0008A69C2F3074070471AB143690B4343610C
:1035B00002E043698B434361704710B50246002027
:1035C00001F4700343B19369C1F3130423400BB1B9
:1035D00001202DE000202BE001F0807343B15368FF
:1035E000C1F3130423400BB1012021E000201FE0B0
:1035F00001F0006343B19368C1F3130423400BB19E
:10360000012015E0002013E001F0007343B1D368FE
:10361000C1F3130423400BB1012009E0002007E0AF
:103620001369C1F3130423400BB1012000E0002013
:1036300010BD0022244B994202D10023836111E086
:10364000C1F3130201F000730BB1C2600AE001F094
:1036500080630BB1026105E001F000630BB1826091
:1036600000E0426070470246002002EA01030BB10D
:10367000012000E00020704770B504460D4600268A
:1036800060692840002872D0B5F5807F69D01DDCC4
:10369000082D42D006DC012D2DD0022D31D0042D75
:1036A0007FD134E0102D3ED0202D42D0402D78D156
:1036B00045E00000030000040003000800000310C0
:1036C000000100080001FFF77000F030B5F5004F71
:1036D00061D009DCB5F5007F4AD0B5F5806F4DD0DB
:1036E000B5F5006F5DD150E0B5F5803F2DD0B5F553
:1036F000003F56D12FE0A0685549FFF7B4FF0646BA
:1037000051E0E0680321FFF7AEFF06464BE0E068BA
:103710000821FFF7A8FF064645E0E0681021FFF703
:10372000A2FF06463FE020690321FFF79CFF064603
:1037300039E020690821FFF796FF064633E020694B
:103740001021FFF790FF06462DE060680821FFF783
:103750008AFF064627E060681021FFF784FF0646CF
:1037600021E0A0690121FFF77EFF06461BE01BE078
:10377000A0690221FFF777FF064614E0A069042143
:10378000FFF771FF06460EE00BE0A0697021FFF71E
:103790006AFF064607E060680421FFF764FF0646FB
:1037A00001E0002600BF00E00026304670BDB1F504
:1037B000007F3AD00FDC202928D006DC01291CD05C
:1037C00004291DD0082940D11DE0402921D0B1F5A0
:1037D000807F3AD126E0B1F5004F31D006DCB1F55B
:1037E000806F25D0B1F5006F2FD124E0B1F5803F77
:1037F00012D0B1F5003F28D111E0154A826025E0D2
:103800000822C26022E01022C2601FE0082202618A
:103810001CE01022026119E00822426016E010222A
:10382000426013E00422426010E0042242600DE096
:10383000042242600AE0002282610422426005E024
:10384000002282610422426000E000BF00BF704796
:103850000101010010B501210802FEF7E2F9002183
:103860004FF48070FEF7DDF910BD30B50246002040
:1038700000235068F84C20400D790C6844EA052478
:10388000204350609068F54C2040D1E903542C430C
:103890008D682C434D7944EA450420439060D06AFA
:1038A00020F470000C7D641EE4B2234340EA035010
:1038B000D06230BD00210160017141718160C16041
:1038C00001610121017570470021E54A1168E54A4F
:1038D0001140D0E900231A4383681A43C3681A438E
:1038E0001143E14AC2F804137047002101604160AE
:1038F0008160C160704721B1826842F0010282603C
:1039000003E0826822F00102826070470A460021CB
:103910004168D64B19401143416070474162826251
:1039200070470A460021416821F01F0111434160A0
:10393000704738B1CA49096841F40001CA4AC2F85F
:10394000041306E0C649096821F40001C64AC2F81A
:103950000413704738B1C249096841F48001C24A72
:10396000C2F8041306E0BE49096821F48001BE4A8A
:10397000C2F804137047F0B504460D46002000213C
:10398000092D11DDE068A5F10A0606EB46070726BA
:1039900006FA07F18843A5F10A0606EB460603FA84
:1039A00006F10843E0600CE0206905EB45070726B7
:1039B00006FA07F1884305EB450603FA06F10843CA
:1039C0002061072A0FDA606B561E06EB86071F265A
:1039D00006FA07F18843561E06EB860605FA06F13D
:1039E0000843606322E00D2A0FDA206BD61F06EB36
:1039F00086071F2606FA07F18843D61F06EB8606C0
:103A000005FA06F10843206310E0E06AA2F10D0612
:103A100006EB86071F2606FA07F18843A2F10D067A
:103A200006EB860605FA06F10843E062F0BD816800
:103A300041F0804181607047014600208A6802F0B1
:103A400080420AB1012000E00020704721B1826865
:103A500042F48062826003E0826822F480628260C5
:103A6000704721B1826842F00202826003E08268FE
:103A700022F002028260704710B50A46002100233E
:103A8000416821F46041531E41EA4331416010BD59
:103A900021B1426842F40062426003E0426822F4CD
:103AA0000062426070470146C86C80B270476C4843
:103AB000001D0068704721B1826842F48072826004
:103AC00003E0826822F480728260704721B18268CC
:103AD00042F40072826003E0826822F40072826025
:103AE000704738B15E49096841F400515E4AC2F836
:103AF000041306E05A49096821F400515A4AC2F8F1
:103B000004137047F0B50446154600200022002635
:103B1000092911DDE068A1F10A0707EB470C072727
:103B200007FA0CF29043A1F10A0707EB470703FAE3
:103B300007F21043E0600CE0206901EB410C07271D
:103B400007FA0CF2904301EB410703FA07F2104326
:103B50002061A06BC0F30156EF1C06F1010CA7EB2E
:103B60000C0707EB870C1F2707FA0CF29043EF1C9A
:103B700006F1010CA7EB0C0707EB870701FA07F228
:103B80001043A063F0BD10B50A4600210023816BED
:103B900021F44011531E41EA0351816310BD08B561
:103BA000002300930090009B0B440093009B1A603D
:103BB00008BD0A460021816821F47021114381600B
:103BC00070470A460021816821F440111143816049
:103BD0007047816841F48001816070470146002090
:103BE0008A6802F480020AB1012000E000207047D8
:103BF00021B1426842F48062426003E0426822F4EC
:103C000080624260704721B1426842F48052426053
:103C100003E0426822F480524260704708B50246D1
:103C200000200090009201F12800009B18440090B1
:103C30000098006880B208BD10B50B460021D9B2CB
:103C4000012404FA01F11AB144680C43446002E013
:103C500044688C43446010BDFFFEFFFCFDF7FFC0CD
:103C600004230140E030FCFF00200140FFFD3FFF46
:103C70000246002013680B400BB1012000E0002039
:103C80007047CA430260704770B5024600200023A7
:103C900000240B12556801268E4005EA06041568BB
:103CA0001D4015B10CB1012000E0002070BD0022C4
:103CB0000A12D343036070477CB5002514E06946BF
:103CC000284601F0D9FF064666B9F74850F8254066
:103CD00044B1012C06D0D4E9020100EB81006064FC
:103CE0000198A064681CC5B23F2DE8D97CBD0024B2
:103CF00000BF02E0C82002F0C9F8EC4800780028B4
:103D0000F8D0EB4800686421B0FBF1F0E8490860A6
:103D10000846006828B90020E6490870FF2001F035
:103D2000EDFF00BF02F06CFA0446E3480068E34987
:103D300008600020E0490860204602F065FADF488C
:103D40000068DB490968B0FBF1F0C0F16400D949B3
:103D5000087002F078F9FFF7AFFF642002F096F8E0
:103D6000E0E700B587B0032000218022D44BCDE9E5
:103D70000132CDE903104FF6FE703E23D14A009088
:103D8000AFF2950001F091FD06AACFA13E2001F00F
:103D9000F5FE07B000BD002400BF00BF02F030FAFE
:103DA0000446C5480068401CC3490860204602F02C
:103DB0002BFA02F047F9F1E700B587B003200021A4
:103DC0008022C54BCDE90132CDE903104FF6FF70DB
:103DD0003F23C24A0090AFF2410001F066FD06AAFF
:103DE000BFA13F2001F0CAFE07B000BD04E00022E1
:103DF00000F8012B4A1E91B20029F8D1704770B526
:103E0000C821BB48FFF7F2FF00230FE0581C85B222
:103E100003EB8300B64901EB800405EB850001EB61
:103E20008006002020706660581C83B2092BEDD3F9
:103E300003EB8300AE4901EB80040020207060603A
:103E40000846AC49086070BD70B54FF47C71AA4853
:103E5000FFF7CCFF4FF480719348FFF7C7FF0024B2
:103E600013E0601CC5B2C4EBC40000EB4000A249E3
:103E700001EB8003C5EBC50000EB400001EB8006C1
:103E80005E619EA0D864601CC4B20B2CE9D3C4EB65
:103E9000C40000EB4000984901EB8003002058610A
:103EA00096A0D86400209649086093489549086018
:103EB00070BD0021944A1170002004E00021934A53
:103EC0001154411CC8B20828F8D30021904A11703F
:103ED000904A1170904A1160904A1160704700201A
:103EE0008F4908608F4908708F4908708F490870A2
:103EF0008F4908708F4908606F4908606F490860F2
:103F00006B49086069490870704710B502F096F86F
:103F1000FFF7E5FFFFF7CDFFFFF796FFFFF76FFF16
:103F200000F0EAFE01F0E1F9FFF746FFFFF719FFA5
:103F300002F085F810BD7E480078012808D1794844
:103F40000078FF2804D277480078401C7549087033
:103F5000704779496C4A1278885C6C49095C764AEA
:103F6000515C01EBC0016B4A1170704710B5002421
:103F70006F480078012830D102F042F904466948C0
:103F8000007820B167480078401E6649087065488F
:103F90000078F8B964480078E0B9FFF7DAFF4248E2
:103FA0005C49097850F821005B490860594800785D
:103FB0005749097888420DD057480068806B401CEB
:103FC0005549096888635B480068401C5949086086
:103FD00002F036F9204602F017F910BD10B50024A2
:103FE00053480078012811D102F00AF904464D48DF
:103FF000007840B94C480078FF2804D24A4800783D
:10400000401C49490870204602F0FEF810BD10B56A
:10401000002402F0F5F8044642480078F8B9424816
:104020000078E0B9FFF795FF1F483A49097850F842
:1040300021003949086037480078354909788842B5
:104040000DD035480068806B401C3349096888638F
:1040500038480068401C3749086002F0EAF82046FA
:1040600002F0D2F810BD10B50024314800780128C4
:104070006FD102F0C5F804462B48007880B12A4879
:104080000078401E284908700846007848B925483D
:10409000007838B9204602F0B7F8FFF7B8FF58E0CB
:1040A00054E04FE04AE000009C4000205400002013
:1040B0004C00002048000020640000205000002038
:1040C0009C3C0020983E002075432F4F532D4949BA
:1040D00020537461740000009C3E00209840002032
:1040E00075432F4F532D49492049646C65000000EA
:1040F000843B0020400000209C4100203F00000045
:10410000740000206C000020590000205A0000209C
:104110005700002058000020700000206800002098
:104120008000002055000020560000206300002081
:10413000620000203C00002038C40008204602F045
:1041400063F806E0204602F05FF802E0204602F045
:104150005BF810BD10B5EB48007890B9FFF7F9FE99
:10416000E9480078E9490870E948E749097850F8D2
:104170002100E849086008460068E749086002F045
:1041800046F810BD10B50024022001F07FFE02F0B9
:1041900037F804460020E1490860204602F034F870
:1041A000642001F073FE02F02BF80446DB4800683F
:1041B000DB4908600120DB490870204602F024F842
:1041C00010BD70B5002602F016F802F019F8064688
:1041D000D5480068401CD4490860304602F014F805
:1041E000C8480078012853D1D048007820B1012870
:1041F00004D0022809D103E001250BE0002509E0E5
:1042000001250120C949087004E001250020C749A3
:10421000087000BF00BF05B970BDC548046833E031
:1042200001F0EEFF0646E06A50B3E06A401EE0622D
:10423000E06A28BB94F8300000F0370040B114F871
:10424000300F00F0C800207001206070303C02E0A8
:10425000002084F8310094F8300000F0080078B9AC
:104260003434A078B34909780843B24908702078FB
:10427000B149085C6178084314F83419AE4A5054C7
:104280006469304601F0C0FF94F832003F28C7D17E
:1042900000BFC1E740F223107047704710B590F897
:1042A000342001F10B039B5C90F83540A34301F1EE
:1042B0000B04A35423469B5C23B98B7A90F83640B9
:1042C000A3438B7210BD2DE9F04F05460F46904673
:1042D0009946A87A99490E5C05F10B00805D11F8AA
:1042E00000B00BEBC60000F0FF0A894850F82A40E6
:1042F00000202034E0602760207C20EA0800207441
:1043000084F81190207C203C00F0080068B994F8F3
:104310003600884909780843864908708648805DD8
:1043200094F8351008438449885529462046FFF7FC
:10433000B5FF5046BDE8F08F10B5774A1268D061DE
:10434000754A126892F8343000F10B02D25C724B5D
:104350001B6893F835301A436F4B1B6893F8344051
:1043600000F10B031A55827A6B4B1B6893F83630B9
:104370001A438272684A126892F834106E4A525C8C
:10438000654B1B6893F835309A436B4B5A541A4669
:10439000525C42B9604A126892F83630654A127827
:1043A0009A43644B1A7010BD014600228A720020A5
:1043B00005E0002301F10B021354421CD0B208287F
:1043C000F7D3704705E011F8013B00F8013B531E9D
:1043D0009AB2002AF7D170470146002002E0491C3A
:1043E000421CD0B20A78002AF9D170472DE9F84F63
:1043F00005460F4690469946DDE90AAB002000903D
:1044000001F0FEFE00904E480468002C75D0183470
:1044100054F8040C4A490860009801F0F5FE44F88D
:10442000187CA576002020766076606144F814BC84
:1044300044F80CAC44F8108C0C9824F8080C24F8C0
:10444000069C0020E077E810207705F00700E07672
:10445000217F01208840A077E17E0120884060779D
:1044600000206060E060A0602062A0626062E062A4
:104470002063AFF278306063183C002606E000212C
:1044800004F1500040F82610701CC6B2002EF6D081
:10449000204601F0AFFE204601F0D2FD01F0B0FE53
:1044A00000901B4840F825402148006860610020CA
:1044B000A0611F48006810B11D48006884611C4855
:1044C00004603434A0781B490978084319490870FE
:1044D00020781949085C6178084314F83419164AA1
:1044E000505418480078401C16490870009801F094
:1044F0008BFE0020BDE8F88FFFE7009801F084FEF6
:104500004220F7E7620000205800002057000020FA
:104510009C40002070000020680000206400002003
:104520004C00002054000020800000207800002073
:1045300074000020590000205A00002038C40008F0
:104540006C000020630000202DE9F05F04460F4658
:1045500091461E464FF0000B2078052804D001201C
:1045600030700020BDE8F09F09F0800ABAF1000F1A
:1045700004D029F080094FF0010801E04FF0000855
:104580000020307001F03CFE8346B9F1000F2CD0C2
:10459000B9F1010F3BD0B9F1020F03D0B9F1030F0C
:1045A00046D111E0208900EA0705BD4206D1B8F1E5
:1045B000010F05D12089A843208101E070203070CF
:1045C000584601F021FE3AE0208900EA070535B19E
:1045D000B8F1010F05D12089A843208101E07020A6
:1045E0003070584601F010FE29E0208927EA0005C6
:1045F000BD4206D1B8F1010F05D1208928432081A1
:1046000001E070203070584601F0FEFD17E020896F
:1046100027EA000535B1B8F1010F05D120892843FB
:10462000208101E070203070584601F0EDFD06E079
:10463000584601F0E9FD00256F20307000BF00BF33
:1046400028468FE72DE9F04106460D460027FA4837
:10465000007820B1102028700020BDE8F08101F022
:10466000CFFD0746F548046884B100684068F34907
:10467000086005202070268100206060F0A0E060C6
:10468000384601F0C1FD0020287004E0384601F0F2
:10469000BBFD722028702046DFE730B501464A682E
:1046A00008682AB9CC68606028B10025456002E03E
:1046B000106000B142608B6800255D6230BDF0B5CE
:1046C00006460F46B4680020283460602780207AB0
:1046D00000F0DF00207200206072207A283C88B948
:1046E0003434A078D74909780843D649087020782F
:1046F000D549085C6178084314F83419D24A5054FB
:10470000012500E000253046FFF7C7FF2846F0BD31
:104710002DE9F0470446894615464FF0000AC64881
:10472000007820B10F2028702046BDE8F08720785F
:10473000052803D0012028702046F6E701F060FD2F
:104740008246606808B1012700E00027B9F1000F38
:1047500003D0B9F1010F3CD119E08FB9B8A0E060E6
:1047600000202070B5480068606000202081B348B8
:104770000460504601F048FD00202870002605E046
:10478000504601F041FD49202870264628E0D4F823
:10479000048005E000214046FFF791FFD8F8008033
:1047A000B8F1000FF6D1A6A0E06000202070A34869
:1047B0000068606000202081A0480460504601F03D
:1047C00023FD012F01D1FFF722FC002028700026D5
:1047D00006E0504601F018FD07202870264600BF6D
:1047E00000BF3046A1E72DE9F04105460E461446CC
:1047F00000279148007820B1112020700020BDE8EA
:10480000F08101F0FDFC07462878052806D03846DF
:1048100001F0FAFC012020700020F0E7E868306029
:104820003068FFF7D9FD8046384601F0EDFC0020E6
:1048300020704046E3E72DE9F04105460E46144658
:1048400000277D48007818B112202070BDE8F08163
:1048500001F0D6FC07462878052805D0384601F037
:10486000D3FC01202070F1E7EE60384601F0CCFC6B
:104870000020207000BFE9E7F0B51446059E734F95
:104880003F6897F8307047F02007DFF8C0C1DCF8C8
:1048900000C08CF830700027DFF8B0C1DCF800C031
:1048A0008CF83170694F3F68FE62684F3F687962EB
:1048B0000C828B74654F3F688F6047680F600027DC
:1048C0004F60C860456805B1696041605F4F3F68EF
:1048D00097F834205C4FBF5CDFF870C1DCF800C093
:1048E0009CF835C027EA0C07DFF85CC10CF80270B1
:1048F0006746BF5C5FB9554F3F6897F836C0514F68
:104900003F7827EA0C07DFF83CC18CF80070F0BD57
:104910002DE9F04F89B005460F4691469A46129E02
:10492000002002904448007828B102203070002016
:1049300009B0BDE8F08F4648007818B10D203070FE
:104940000020F5E72878052803D0012030700020EA
:10495000EEE709F0800BBBF1000F04D009F07F09EE
:104960004FF0010801E04FF0000801F049FC02900F
:10497000B9F1000F4AD0B9F1010F78D0B9F1020FA7
:1049800003D0B9F1030F71D120E0288900EA0704B0
:10499000BC420FD1B8F1010F02D12889A043288170
:1049A0002A4800680485029801F02EFC002030702F
:1049B0002046BDE74B463A4604A92846CDF800A05C
:1049C000FFF75AFF029801F01FFC78E0288900EAFF
:1049D00007047CB1B8F1010F02D12889A0432881D6
:1049E0001A4800680485029801F00EFC002030701F
:1049F00020469DE74B463A4604A92846CDF800A03C
:104A0000FFF73AFF029801F0FFFB58E0288927EAF8
:104A10000004BC421ED1B8F1010F02D12889204305
:104A200028810A4800680485029801F0EDFB002007
:104A3000307020467CE71AE055000020440000203A
:104A40003F000000590000205A00002068000020AC
:104A5000560000204B463A4604A92846CDF800A04F
:104A6000FFF70AFF029801F0CFFB28E01FE028893A
:104A700027EA00047CB1B8F1010F02D12889204354
:104A80002881B14800680485029801F0BDFB002030
:104A9000307020464CE74B463A4604A92846CDF8EC
:104AA00000A0FFF7E9FE029801F0AEFB07E00298D4
:104AB00001F0AAFB00246F203070204638E700BFC9
:104AC000FFF7A5FA01F09CFB02909F48006890F860
:104AD000310020B39C48006890F83100039000201A
:104AE0009949096881F8310004A8FFF7D6FD002034
:104AF0009549096881F83000029801F085FB00248F
:104B00000398012805D0022802D10E20307003E05E
:104B100000BF0A20307000BF00BF204608E78A4867
:104B20000068048DB8F1010F1ED1B9F1000F0ED04D
:104B3000B9F1010F0CD0B9F1020F03D0B9F1030F95
:104B40000AD100E000BF2889A04328810BE000BF04
:104B500028892043288106E0029801F055FB6F2048
:104B600030700020E4E600BF029801F04DFB002009
:104B700030702046DCE670B5002501F041FB0546AB
:104B800071480068048D284601F03EFB204670BD48
:104B90002DE9FC5F0446894692461E46002000909F
:104BA0002078052804D0012030700020BDE8FC9F4B
:104BB00001F026FB0090BAF1000F03D0BAF1010F0B
:104BC0000AD104E0208920EA090020810BE0208935
:104BD00040EA0900208106E0009801F015FB7120F1
:104BE00030700020E2E700BF4FF0000B656855E031
:104BF000A87C40B3012838D0022802D0032844D131
:104C000011E02089298A00EA0107288AB84209D1DF
:104C100039462846FFF753FD8046B8F1010F01D110
:104C20004FF0010B38E02089298A00EA01074FB1D3
:104C300039462846FFF743FD8046B8F1010F01D100
:104C40004FF0010B28E0288A218920EA0107288AF1
:104C5000B84209D139462846FFF731FD8046B8F100
:104C6000010F01D14FF0010B16E0288A218920EABB
:104C700001074FB139462846FFF721FD8046B8F1BC
:104C8000010F01D14FF0010B06E0009801F0BCFAD2
:104C90006F203070002089E700BF2D68002DA7D15C
:104CA000009801F0B1FABBF1010F01D1FFF7AFF9A4
:104CB00001F0A6FA009020890190009801F0A4FA72
:104CC00000203070019871E72DE9F04104460D464F
:104CD00000272078052804D0012028700020BDE896
:104CE000F08101F08DFA07462689384601F08CFAEA
:104CF000002028703046F2E72DE9F041502113489A
:104D0000FFF774F800250EE0681C86B20F4800EB30
:104D1000051400EB0617002020706760AFF2E0205A
:104D2000E060681C85B2042DEED3084800EB051442
:104D3000002020706060AFF2F820E0600348044972
:104D40000860BDE8F0810000680000204C3C0020B5
:104D5000440000202DE9F04106460D464FF00008C2
:104D60003078022804D0012028700020BDE8F081AE
:104D700001F046FA80467468E08A78B12169081D1E
:104D800020610F68E08A401EE082A16820698842A5
:104D900001D1606820610020287002E01F20287087
:104DA0000027404601F030FA3846DFE72DE9F041B0
:104DB00006460F464FF00008F748007810B1002073
:104DC000BDE8F08101F01CFA8046F44805680068EF
:104DD00020B1F24800684068F0490860404601F0A0
:104DE00013FA3DB301F00CFA8046ED480468C4B1F3
:104DF00000680068EA490860404601F005FA66600C
:104E000006EB8700A060E6602661A7820020E082B2
:104E100002202870002028816C602846FFF7C4FA21
:104E200008E0DE4800686860DC480560404601F044
:104E3000EBF900252846C3E72DE9F04704468946EB
:104E400015464FF0000A2078022804D0012028706F
:104E50002046BDE8F087D048007818B10F202870B0
:104E60002046F6E701F0CCF98246A07A10B14FF067
:104E7000010801E04FF00008B9F1000F03D0B9F1CB
:104E8000010F45D11FE0B8F1000F15D16668C44885
:104E900000683060C248066000202070BF4800688B
:104EA000606000202081BD480460504601F0ACF9EC
:104EB00000202870002705E0504601F0A5F94920A0
:104EC000287027462BE005E00023042219462046DF
:104ED000FFF7F9F9A07A0028F6D16668B0480068B3
:104EE0003060AF48066000202070AC480068606009
:104EF00000202081A9480460504601F085F9B8F1EE
:104F0000010F01D1FFF783F800202870002706E089
:104F1000504601F079F907202870274600BF00BFEE
:104F2000384696E770B50546002601F069F9064651
:104F30006C686068E060606820610020E082304654
:104F400001F062F9002070BD2DE9F0470746884660
:104F500015464FF000093878022804D00120287047
:104F60000020BDE8F0878C48007818B10220287036
:104F70000020F6E78B48007818B10D20287000203B
:104F8000EFE701F03DF981467C68E08A98B121693C
:104F9000081D20610E68E08A401EE082A168206939
:104FA000884201D160682061484601F02DF9002057
:104FB00028703046D5E77C48006890F8300040F013
:104FC00004007949096881F83000002076490968B1
:104FD00081F8310074480068C0F82C803846FFF72B
:104FE000ABF9484601F010F9FFF711F801F008F9A4
:104FF00081466D48006890F8310020B101280DD03D
:1050000002280AD105E068480068066A0020287076
:105010000DE000260E20287009E000BF39466248E6
:105020000068FFF73BF900260A20287000BF00BF88
:1050300000205D49096881F830005B49096881F802
:10504000310059490968C8615749096808624846EA
:1050500001F0DAF8304684E72DE9F04104460F46C6
:1050600015464FF000082078022804D0012028704F
:105070000020BDE8F08101F0C3F88046A07A20B39B
:1050800000267FB1012F0CD107E00223042200216A
:105090002046FFF718F9701CC6B2A07A0028F4D198
:1050A00009E000BF0223042200212046FFF70BF98C
:1050B000701CC6B200BF00BF404601F0A5F8FEF765
:1050C000A6FF0E2028703046D3E7404601F09CF83A
:1050D0000020287000BFCCE72DE9F04105460E46C0
:1050E00000272878022802D00120BDE8F08101F0D5
:1050F00087F80746A87A60B1002304223146284683
:10510000FFF7E1F8384601F07FF8FEF780FF002056
:10511000EBE76C68E08AA18A884204DB384601F03C
:1051200073F81E20E1E7E168081DE0600E60E08A88
:10513000401CE082D4E90210884201D16068E0603E
:10514000384601F061F80020CFE72DE9F04105462F
:105150000E4600272878022802D00120BDE8F08101
:1051600001F04EF80746A87A60B1002304223146C8
:105170002846FFF7A8F8384601F046F8FEF747FF43
:105180000020EBE76C68E08AA18A88420EDB384693
:1051900001F03AF81E20E1E7550000204000002011
:1051A0007C00002056000020680000206168206913
:1051B000884201D1A06820612069001F2061206918
:1051C0000660E08A401CE082384601F01DF80020AD
:1051D000C4E72DE9F04105460F4616464FF000089A
:1051E0002878022802D00120BDE8F08101F008F8FB
:1051F0008046A87AE8B106F0010050B105E000232E
:10520000042239462846FFF75EF8A87A0028F6D12E
:1052100005E00023042239462846FFF754F84046AB
:1052200000F0F2FF06F0040008B9FEF7F0FE0020DF
:10523000DAE76C68E08AA18A884204DB404600F025
:10524000E3FF1E20D0E706F0020058B16168206934
:10525000884201D1A06820612069001F2061206977
:10526000076009E0E168081DE0600F60D4E9021002
:10527000884201D16068E060E08A401CE0824046DC
:1052800000F0C2FF0020AFE72DE9F04705460C46CD
:105290004FF0000A2878022802D00120BDE8F087EC
:1052A00000F0AEFF8246A87A207405F10B0804F1E5
:1052B0000809002705E018F8010B09F8010B781C14
:1052C000C7B2082FF7D36E68F08A18B1306900684A
:1052D000206001E000202060F08AA080B08AE08099
:1052E000504600F091FF0020D8E72DE9F0417821E9
:1052F0001048FEF77BFD00240DE0601C86B204EB35
:1053000044000C4901EBC00506EB460001EBC00769
:105310002F60601C84B2042CEFD304EB44000549D9
:1053200001EBC00500202860084603490860BDE87D
:10533000F08100008C4500207C00002070B5044600
:1053400000262078032801D0002070BD00F058FF0F
:105350000646258915B12089401E2081304600F07F
:1053600053FF2846F1E770B505460026D24800787D
:1053700008B1002070BD00F043FF0646CF48046826
:10538000006820B1CD4800684068CC4908603046CC
:1053900000F03AFF3CB103202070258100206060BE
:1053A0002046FFF701F82046E4E72DE9F0470446E0
:1053B000884615464FF000092078032804D00120C4
:1053C00028702046BDE8F087BB48007818B10F2050
:1053D00028702046F6E700F013FF8146A07A08B156
:1053E000012700E00027B8F1000F03D0B8F1010F4A
:1053F00035D117E07FB900202070B04800686060A8
:1054000000202081AD480460484600F0FDFE0020E9
:105410002870002605E0484600F0F6FE4920287076
:10542000264623E005E00023012219462046FEF728
:105430004AFFA07A0028F6D12070A048006860607A
:10544000002020819D480460484600F0DDFE012FC9
:1054500001D1FEF7DCFD00202870002606E048465A
:1054600000F0D2FE07202870264600BF00BF30465D
:10547000A8E72DE9F04105460E4614460027287896
:10548000032803D001202070BDE8F0818A4800780D
:1054900010B102202070F7E78948007810B10D2084
:1054A0002070F1E700F0ACFE0746288940B128895A
:1054B000401E2881384600F0A7FE00202070E3E758
:1054C0008048006890F8300040F001007D4909688C
:1054D00081F8300000207B49096881F83100794863
:1054E0000068C6622846FEF727FF384600F08CFEAB
:1054F000FEF78DFD00F084FE07467248006890F8C4
:10550000310020B1012809D0022806D102E0002094
:1055100020700BE00E20207008E000BF294669488B
:105520000068FEF7BBFE0A20207000BF00BF00200D
:105530006449096881F830006249096881F83100DE
:1055400060490968C861384600F05EFE00BF9BE70D
:105550002DE9F04104460F4615464FF0000820782B
:10556000032804D0012028700020BDE8F08100F05D
:1055700047FE8046A07A20B300267FB1012F0CD1D0
:1055800007E00223012200212046FEF79CFE701C4A
:10559000C6B2A07A0028F4D109E000BF022301229C
:1055A00000212046FEF78FFE701CC6B200BF00BF70
:1055B000404600F029FEFEF72AFD0E2028703046F6
:1055C000D3E7404600F020FE0020287000BFCCE763
:1055D00070B5044600252078032801D0012070BD55
:1055E00000F00EFE0546A07A60B1002301221946A4
:1055F0002046FEF768FE284600F006FEFEF707FD8F
:105600000020ECE720894FF6FF71884207D22089FD
:10561000401C2081284600F0F7FD0020DFE72846E7
:1056200000F0F2FD3320DAE72DE9F04704460D469D
:105630004FF000092078032802D00120BDE8F08750
:1056400000F0DEFD8146A07AA87204F10B0705F197
:105650000208002605E017F8010B08F8010B701C82
:10566000C6B2082EF7D320892880484600F0CCFD2A
:105670000020E3E72DE9F04104460E4615460027D9
:105680002078032803D001202870BDE8F08100F0C5
:10569000B7FD074600202870208908B1268105E063
:1056A000A07A08B9268101E049202870384600F028
:1056B000ABFD00BFE9E700005500002040000020DE
:1056C00056000020680000202DE9FF5F81468846D3
:1056D0000020009000F094FD0090F94850F8280058
:1056E00030B1009800F090FD282004B0BDE8F09F94
:1056F000B9F1FF0F03D1F348006890F83290F048F9
:1057000050F8294024B9009800F07EFD2920ECE7EC
:10571000012C04D1009800F077FD4320E5E74FEA23
:10572000E80708F0070003900120B84000F0FF0AE6
:1057300001210398814001F0FF0B0020E04941F86E
:105740002900084640F8284014F8346FA0780290E9
:105750006078343C0190DC48815D01980140D1B112
:10576000D948805D01998843D74988550846805DAE
:1057700028B9D648007802998843D4490870D3489C
:10578000007840EA0A00D1490870CF48C05D40EA7D
:105790000B00CD49C855E569D5B105F10B00805D19
:1057A0000199884305F10B0188550846805D18B9B9
:1057B000A87A02998843A872A87A40EA0A00A872D7
:1057C00005F10B00C05D40EA0B0005F10B01C85567
:1057D00084F8328084F83470039884F8330084F8B5
:1057E00036A084F835B0009800F00EFDB848007877
:1057F000012801D1FEF70BFC002076E72DE9FE4FD2
:1058000006460F4690461C464FF0000900F0F8FC93
:105810008146B048007828B1484600F0F5FC3C20AD
:10582000BDE8FE8FA64850F8240060BB0120A449C3
:1058300041F82400484600F0E7FC00234246394680
:10584000304600F001FC82460020009001900346A3
:105850000246514602902046FEF7C8FD054635B97E
:105860009B48007801280CD1FEF7D1FB09E000F03D
:10587000C7FC81460020924941F82400484600F0C8
:10588000C3FC2846CCE7484600F0BEFC2820C7E70A
:1058900002F0010343B102F002032BB102E0491E02
:1058A000002308C00029FAD170472DE9F04F85B0D8
:1058B00081468A4693461C46DDE90F78129D0020FA
:1058C000039000F09DFC03908248007830B103986B
:1058D00000F09AFC3C2005B0BDE8F08F784850F805
:1058E000240088BB0120764941F82400039800F089
:1058F0008BFC2A4641463846FFF7CAFF2B465A46DC
:105900005146484600F0A0FB04901198CDE9008074
:1059100002953A4620460E9B0499FEF767FD06461F
:1059200036B96B48007801280CD1FEF770FB09E00E
:1059300000F066FC03900020614941F824000398C0
:1059400000F062FC3046C6E7FFE7039800F05CFC1D
:105950002820C0E72DE9F041054600275D48007882
:1059600010B14020BDE8F0813F2D01D13E20F9E784
:1059700000F046FC0746FF2D03D15248006890F81E
:1059800032504F4850F8254024B9384600F03CFCCE
:105990004320E7E7012C04D1384600F035FC3D20D8
:1059A000E0E714F8340F4849085C617888432178AF
:1059B000454A505414F834091146085C30B994F83B
:1059C000361042480078884340490870E06918B1B1
:1059D0002046E169FEF762FC666A16B13046FEF7C2
:1059E0005CFE0020E06284F8300084F831003A4820
:1059F0000078FF2804D238480078401C36490870E7
:105A0000384600F001FCFEF748FC00F0F9FB0746C1
:105A10003148007820B130480078401E2E49087087
:105A2000204600F00EFB2D480078401E2B490870E0
:105A30000020234941F82500A06930B900206169A0
:105A4000886127496069086005E0D4E9050148617B
:105A5000D4E905108861234800686061214804602A
:105A600021A0E064384600F0CFFB194800780128F7
:105A700001D1FEF7CCFA002074E72DE9F04104468D
:105A800000273F2C02D13E20BDE8F081FF2C0BD136
:105A900000F0B6FB07460B48006890F837603846C0
:105AA00000F0B2FB3046EFE700F0AAFB07460448DF
:105AB00050F82450D5B9384600F0A6FB4320E3E760
:105AC0009C400020680000205A000020590000205F
:105AD00062000020550000205600002063000020D6
